{
	"Counter.sol": {
		"Counter": {
			"abi": [
				{
					"anonymous": false,
					"inputs": [
						{
							"indexed": false,
							"internalType": "address",
							"name": "owner",
							"type": "address"
						},
						{
							"indexed": false,
							"internalType": "uint256",
							"name": "currentValue",
							"type": "uint256"
						}
					],
					"name": "Rest",
					"type": "event"
				},
				{
					"inputs": [],
					"name": "getValue",
					"outputs": [
						{
							"internalType": "uint256",
							"name": "",
							"type": "uint256"
						}
					],
					"stateMutability": "view",
					"type": "function"
				},
				{
					"inputs": [],
					"name": "increment",
					"outputs": [],
					"stateMutability": "payable",
					"type": "function"
				},
				{
					"inputs": [],
					"name": "owner",
					"outputs": [
						{
							"internalType": "address",
							"name": "",
							"type": "address"
						}
					],
					"stateMutability": "view",
					"type": "function"
				},
				{
					"inputs": [],
					"name": "reset",
					"outputs": [],
					"stateMutability": "nonpayable",
					"type": "function"
				},
				{
					"inputs": [],
					"name": "withdraw",
					"outputs": [],
					"stateMutability": "nonpayable",
					"type": "function"
				}
			],
			"devdoc": {
				"kind": "dev",
				"methods": {},
				"version": 1
			},
			"evm": {
				"assembly": "    /* \"Counter.sol\":311:1145  contract Counter is Ownable{ // Contract 상속... */\n  mstore(0x40, 0x80)\n    /* \"Counter.sol\":455:456  0 */\n  0x00\n    /* \"Counter.sol\":431:456  uint256 private value = 0 */\n  0x01\n  sstore\n    /* \"Counter.sol\":311:1145  contract Counter is Ownable{ // Contract 상속... */\n  callvalue\n  dup1\n  iszero\n  tag_1\n  jumpi\n  revert(0x00, 0x00)\ntag_1:\n  pop\n    /* \"Counter.sol\":192:202  msg.sender */\n  caller\n    /* \"Counter.sol\":184:189  owner */\n  0x00\n  0x00\n    /* \"Counter.sol\":184:202  owner = msg.sender */\n  0x0100\n  exp\n  dup2\n  sload\n  dup2\n  0xffffffffffffffffffffffffffffffffffffffff\n  mul\n  not\n  and\n  swap1\n  dup4\n  0xffffffffffffffffffffffffffffffffffffffff\n  and\n  mul\n  or\n  swap1\n  sstore\n  pop\n    /* \"Counter.sol\":311:1145  contract Counter is Ownable{ // Contract 상속... */\n  dataSize(sub_0)\n  dup1\n  dataOffset(sub_0)\n  0x00\n  codecopy\n  0x00\n  return\nstop\n\nsub_0: assembly {\n        /* \"Counter.sol\":311:1145  contract Counter is Ownable{ // Contract 상속... */\n      mstore(0x40, 0x80)\n      jumpi(tag_1, lt(calldatasize, 0x04))\n      shr(0xe0, calldataload(0x00))\n      dup1\n      0x20965255\n      eq\n      tag_2\n      jumpi\n      dup1\n      0x3ccfd60b\n      eq\n      tag_3\n      jumpi\n      dup1\n      0x8da5cb5b\n      eq\n      tag_4\n      jumpi\n      dup1\n      0xd09de08a\n      eq\n      tag_5\n      jumpi\n      dup1\n      0xd826f88f\n      eq\n      tag_6\n      jumpi\n    tag_1:\n      revert(0x00, 0x00)\n        /* \"Counter.sol\":655:771  function getValue() public view returns(uint) {... */\n    tag_2:\n      callvalue\n      dup1\n      iszero\n      tag_7\n      jumpi\n      revert(0x00, 0x00)\n    tag_7:\n      pop\n      tag_8\n      tag_9\n      jump\t// in\n    tag_8:\n      mload(0x40)\n      tag_10\n      swap2\n      swap1\n      tag_11\n      jump\t// in\n    tag_10:\n      mload(0x40)\n      dup1\n      swap2\n      sub\n      swap1\n      return\n        /* \"Counter.sol\":951:1050  function withdraw() public onlyOwner{... */\n    tag_3:\n      callvalue\n      dup1\n      iszero\n      tag_12\n      jumpi\n      revert(0x00, 0x00)\n    tag_12:\n      pop\n      tag_13\n      tag_14\n      jump\t// in\n    tag_13:\n      stop\n        /* \"Counter.sol\":132:152  address public owner */\n    tag_4:\n      callvalue\n      dup1\n      iszero\n      tag_15\n      jumpi\n      revert(0x00, 0x00)\n    tag_15:\n      pop\n      tag_16\n      tag_17\n      jump\t// in\n    tag_16:\n      mload(0x40)\n      tag_18\n      swap2\n      swap1\n      tag_19\n      jump\t// in\n    tag_18:\n      mload(0x40)\n      dup1\n      swap2\n      sub\n      swap1\n      return\n        /* \"Counter.sol\":777:837  function increment() public payable {... */\n    tag_5:\n      tag_20\n      tag_21\n      jump\t// in\n    tag_20:\n      stop\n        /* \"Counter.sol\":843:941  function reset() public onlyOwner {... */\n    tag_6:\n      callvalue\n      dup1\n      iszero\n      tag_22\n      jumpi\n      revert(0x00, 0x00)\n    tag_22:\n      pop\n      tag_23\n      tag_24\n      jump\t// in\n    tag_23:\n      stop\n        /* \"Counter.sol\":655:771  function getValue() public view returns(uint) {... */\n    tag_9:\n        /* \"Counter.sol\":695:699  uint */\n      0x00\n        /* \"Counter.sol\":718:723  value */\n      sload(0x01)\n        /* \"Counter.sol\":711:723  return value */\n      swap1\n      pop\n        /* \"Counter.sol\":655:771  function getValue() public view returns(uint) {... */\n      swap1\n      jump\t// out\n        /* \"Counter.sol\":951:1050  function withdraw() public onlyOwner{... */\n    tag_14:\n        /* \"Counter.sol\":268:273  owner */\n      0x00\n      0x00\n      swap1\n      sload\n      swap1\n      0x0100\n      exp\n      swap1\n      div\n      0xffffffffffffffffffffffffffffffffffffffff\n      and\n        /* \"Counter.sol\":254:273  msg.sender == owner */\n      0xffffffffffffffffffffffffffffffffffffffff\n      and\n        /* \"Counter.sol\":254:264  msg.sender */\n      caller\n        /* \"Counter.sol\":254:273  msg.sender == owner */\n      0xffffffffffffffffffffffffffffffffffffffff\n      and\n      eq\n        /* \"Counter.sol\":246:289  require(msg.sender == owner, \"Only Owner!\") */\n      tag_27\n      jumpi\n      mload(0x40)\n      0x08c379a000000000000000000000000000000000000000000000000000000000\n      dup2\n      mstore\n      0x04\n      add\n      tag_28\n      swap1\n      tag_29\n      jump\t// in\n    tag_28:\n      mload(0x40)\n      dup1\n      swap2\n      sub\n      swap1\n      revert\n    tag_27:\n        /* \"Counter.sol\":1005:1010  owner */\n      0x00\n      0x00\n      swap1\n      sload\n      swap1\n      0x0100\n      exp\n      swap1\n      div\n      0xffffffffffffffffffffffffffffffffffffffff\n      and\n        /* \"Counter.sol\":997:1020  payable(owner).transfer */\n      0xffffffffffffffffffffffffffffffffffffffff\n      and\n        /* \"Counter.sol\":997:1043  payable(owner).transfer(address(this).balance) */\n      0x08fc\n        /* \"Counter.sol\":1021:1042  address(this).balance */\n      selfbalance\n        /* \"Counter.sol\":997:1043  payable(owner).transfer(address(this).balance) */\n      swap1\n      dup2\n      iszero\n      mul\n      swap1\n      mload(0x40)\n      0x00\n      mload(0x40)\n      dup1\n      dup4\n      sub\n      dup2\n      dup6\n      dup9\n      dup9\n      call\n      swap4\n      pop\n      pop\n      pop\n      pop\n      iszero\n      dup1\n      iszero\n      tag_32\n      jumpi\n      returndatacopy(0x00, 0x00, returndatasize)\n      revert(0x00, returndatasize)\n    tag_32:\n      pop\n        /* \"Counter.sol\":951:1050  function withdraw() public onlyOwner{... */\n      jump\t// out\n        /* \"Counter.sol\":132:152  address public owner */\n    tag_17:\n      0x00\n      0x00\n      swap1\n      sload\n      swap1\n      0x0100\n      exp\n      swap1\n      div\n      0xffffffffffffffffffffffffffffffffffffffff\n      and\n      dup2\n      jump\t// out\n        /* \"Counter.sol\":777:837  function increment() public payable {... */\n    tag_21:\n        /* \"Counter.sol\":823:828  value */\n      0x01\n      0x00\n        /* \"Counter.sol\":823:830  value++ */\n      dup2\n      sload\n      dup1\n      swap3\n      swap2\n      swap1\n      tag_34\n      swap1\n      tag_35\n      jump\t// in\n    tag_34:\n      swap2\n      swap1\n      pop\n      sstore\n      pop\n        /* \"Counter.sol\":777:837  function increment() public payable {... */\n      jump\t// out\n        /* \"Counter.sol\":843:941  function reset() public onlyOwner {... */\n    tag_24:\n        /* \"Counter.sol\":268:273  owner */\n      0x00\n      0x00\n      swap1\n      sload\n      swap1\n      0x0100\n      exp\n      swap1\n      div\n      0xffffffffffffffffffffffffffffffffffffffff\n      and\n        /* \"Counter.sol\":254:273  msg.sender == owner */\n      0xffffffffffffffffffffffffffffffffffffffff\n      and\n        /* \"Counter.sol\":254:264  msg.sender */\n      caller\n        /* \"Counter.sol\":254:273  msg.sender == owner */\n      0xffffffffffffffffffffffffffffffffffffffff\n      and\n      eq\n        /* \"Counter.sol\":246:289  require(msg.sender == owner, \"Only Owner!\") */\n      tag_37\n      jumpi\n      mload(0x40)\n      0x08c379a000000000000000000000000000000000000000000000000000000000\n      dup2\n      mstore\n      0x04\n      add\n      tag_38\n      swap1\n      tag_29\n      jump\t// in\n    tag_38:\n      mload(0x40)\n      dup1\n      swap2\n      sub\n      swap1\n      revert\n    tag_37:\n        /* \"Counter.sol\":892:915  Rest(msg.sender, value) */\n      0xe770d1af15a1dc2b8f3a2b7111c8489188cc2d4b81ef888a8c8a0dfeca61284f\n        /* \"Counter.sol\":897:907  msg.sender */\n      caller\n        /* \"Counter.sol\":909:914  value */\n      sload(0x01)\n        /* \"Counter.sol\":892:915  Rest(msg.sender, value) */\n      mload(0x40)\n      tag_40\n      swap3\n      swap2\n      swap1\n      tag_41\n      jump\t// in\n    tag_40:\n      mload(0x40)\n      dup1\n      swap2\n      sub\n      swap1\n      log1\n        /* \"Counter.sol\":933:934  0 */\n      0x00\n        /* \"Counter.sol\":925:930  value */\n      0x01\n        /* \"Counter.sol\":925:934  value = 0 */\n      dup2\n      swap1\n      sstore\n      pop\n        /* \"Counter.sol\":843:941  function reset() public onlyOwner {... */\n      jump\t// out\n        /* \"#utility.yul\":7:84   */\n    tag_42:\n        /* \"#utility.yul\":44:51   */\n      0x00\n        /* \"#utility.yul\":73:78   */\n      dup2\n        /* \"#utility.yul\":62:78   */\n      swap1\n      pop\n        /* \"#utility.yul\":7:84   */\n      swap2\n      swap1\n      pop\n      jump\t// out\n        /* \"#utility.yul\":90:208   */\n    tag_43:\n        /* \"#utility.yul\":177:201   */\n      tag_54\n        /* \"#utility.yul\":195:200   */\n      dup2\n        /* \"#utility.yul\":177:201   */\n      tag_42\n      jump\t// in\n    tag_54:\n        /* \"#utility.yul\":172:175   */\n      dup3\n        /* \"#utility.yul\":165:202   */\n      mstore\n        /* \"#utility.yul\":90:208   */\n      pop\n      pop\n      jump\t// out\n        /* \"#utility.yul\":214:436   */\n    tag_11:\n        /* \"#utility.yul\":307:311   */\n      0x00\n        /* \"#utility.yul\":345:347   */\n      0x20\n        /* \"#utility.yul\":334:343   */\n      dup3\n        /* \"#utility.yul\":330:348   */\n      add\n        /* \"#utility.yul\":322:348   */\n      swap1\n      pop\n        /* \"#utility.yul\":358:429   */\n      tag_56\n        /* \"#utility.yul\":426:427   */\n      0x00\n        /* \"#utility.yul\":415:424   */\n      dup4\n        /* \"#utility.yul\":411:428   */\n      add\n        /* \"#utility.yul\":402:408   */\n      dup5\n        /* \"#utility.yul\":358:429   */\n      tag_43\n      jump\t// in\n    tag_56:\n        /* \"#utility.yul\":214:436   */\n      swap3\n      swap2\n      pop\n      pop\n      jump\t// out\n        /* \"#utility.yul\":442:568   */\n    tag_44:\n        /* \"#utility.yul\":479:486   */\n      0x00\n        /* \"#utility.yul\":519:561   */\n      0xffffffffffffffffffffffffffffffffffffffff\n        /* \"#utility.yul\":512:517   */\n      dup3\n        /* \"#utility.yul\":508:562   */\n      and\n        /* \"#utility.yul\":497:562   */\n      swap1\n      pop\n        /* \"#utility.yul\":442:568   */\n      swap2\n      swap1\n      pop\n      jump\t// out\n        /* \"#utility.yul\":574:670   */\n    tag_45:\n        /* \"#utility.yul\":611:618   */\n      0x00\n        /* \"#utility.yul\":640:664   */\n      tag_59\n        /* \"#utility.yul\":658:663   */\n      dup3\n        /* \"#utility.yul\":640:664   */\n      tag_44\n      jump\t// in\n    tag_59:\n        /* \"#utility.yul\":629:664   */\n      swap1\n      pop\n        /* \"#utility.yul\":574:670   */\n      swap2\n      swap1\n      pop\n      jump\t// out\n        /* \"#utility.yul\":676:794   */\n    tag_46:\n        /* \"#utility.yul\":763:787   */\n      tag_61\n        /* \"#utility.yul\":781:786   */\n      dup2\n        /* \"#utility.yul\":763:787   */\n      tag_45\n      jump\t// in\n    tag_61:\n        /* \"#utility.yul\":758:761   */\n      dup3\n        /* \"#utility.yul\":751:788   */\n      mstore\n        /* \"#utility.yul\":676:794   */\n      pop\n      pop\n      jump\t// out\n        /* \"#utility.yul\":800:1022   */\n    tag_19:\n        /* \"#utility.yul\":893:897   */\n      0x00\n        /* \"#utility.yul\":931:933   */\n      0x20\n        /* \"#utility.yul\":920:929   */\n      dup3\n        /* \"#utility.yul\":916:934   */\n      add\n        /* \"#utility.yul\":908:934   */\n      swap1\n      pop\n        /* \"#utility.yul\":944:1015   */\n      tag_63\n        /* \"#utility.yul\":1012:1013   */\n      0x00\n        /* \"#utility.yul\":1001:1010   */\n      dup4\n        /* \"#utility.yul\":997:1014   */\n      add\n        /* \"#utility.yul\":988:994   */\n      dup5\n        /* \"#utility.yul\":944:1015   */\n      tag_46\n      jump\t// in\n    tag_63:\n        /* \"#utility.yul\":800:1022   */\n      swap3\n      swap2\n      pop\n      pop\n      jump\t// out\n        /* \"#utility.yul\":1028:1197   */\n    tag_47:\n        /* \"#utility.yul\":1112:1123   */\n      0x00\n        /* \"#utility.yul\":1146:1152   */\n      dup3\n        /* \"#utility.yul\":1141:1144   */\n      dup3\n        /* \"#utility.yul\":1134:1153   */\n      mstore\n        /* \"#utility.yul\":1186:1190   */\n      0x20\n        /* \"#utility.yul\":1181:1184   */\n      dup3\n        /* \"#utility.yul\":1177:1191   */\n      add\n        /* \"#utility.yul\":1162:1191   */\n      swap1\n      pop\n        /* \"#utility.yul\":1028:1197   */\n      swap3\n      swap2\n      pop\n      pop\n      jump\t// out\n        /* \"#utility.yul\":1203:1364   */\n    tag_48:\n        /* \"#utility.yul\":1343:1356   */\n      0x4f6e6c79204f776e657221000000000000000000000000000000000000000000\n        /* \"#utility.yul\":1339:1340   */\n      0x00\n        /* \"#utility.yul\":1331:1337   */\n      dup3\n        /* \"#utility.yul\":1327:1341   */\n      add\n        /* \"#utility.yul\":1320:1357   */\n      mstore\n        /* \"#utility.yul\":1203:1364   */\n      pop\n      jump\t// out\n        /* \"#utility.yul\":1370:1736   */\n    tag_49:\n        /* \"#utility.yul\":1512:1515   */\n      0x00\n        /* \"#utility.yul\":1533:1600   */\n      tag_67\n        /* \"#utility.yul\":1597:1599   */\n      0x0b\n        /* \"#utility.yul\":1592:1595   */\n      dup4\n        /* \"#utility.yul\":1533:1600   */\n      tag_47\n      jump\t// in\n    tag_67:\n        /* \"#utility.yul\":1526:1600   */\n      swap2\n      pop\n        /* \"#utility.yul\":1609:1702   */\n      tag_68\n        /* \"#utility.yul\":1698:1701   */\n      dup3\n        /* \"#utility.yul\":1609:1702   */\n      tag_48\n      jump\t// in\n    tag_68:\n        /* \"#utility.yul\":1727:1729   */\n      0x20\n        /* \"#utility.yul\":1722:1725   */\n      dup3\n        /* \"#utility.yul\":1718:1730   */\n      add\n        /* \"#utility.yul\":1711:1730   */\n      swap1\n      pop\n        /* \"#utility.yul\":1370:1736   */\n      swap2\n      swap1\n      pop\n      jump\t// out\n        /* \"#utility.yul\":1742:2161   */\n    tag_29:\n        /* \"#utility.yul\":1908:1912   */\n      0x00\n        /* \"#utility.yul\":1946:1948   */\n      0x20\n        /* \"#utility.yul\":1935:1944   */\n      dup3\n        /* \"#utility.yul\":1931:1949   */\n      add\n        /* \"#utility.yul\":1923:1949   */\n      swap1\n      pop\n        /* \"#utility.yul\":1995:2004   */\n      dup2\n        /* \"#utility.yul\":1989:1993   */\n      dup2\n        /* \"#utility.yul\":1985:2005   */\n      sub\n        /* \"#utility.yul\":1981:1982   */\n      0x00\n        /* \"#utility.yul\":1970:1979   */\n      dup4\n        /* \"#utility.yul\":1966:1983   */\n      add\n        /* \"#utility.yul\":1959:2006   */\n      mstore\n        /* \"#utility.yul\":2023:2154   */\n      tag_70\n        /* \"#utility.yul\":2149:2153   */\n      dup2\n        /* \"#utility.yul\":2023:2154   */\n      tag_49\n      jump\t// in\n    tag_70:\n        /* \"#utility.yul\":2015:2154   */\n      swap1\n      pop\n        /* \"#utility.yul\":1742:2161   */\n      swap2\n      swap1\n      pop\n      jump\t// out\n        /* \"#utility.yul\":2167:2347   */\n    tag_50:\n        /* \"#utility.yul\":2215:2292   */\n      0x4e487b7100000000000000000000000000000000000000000000000000000000\n        /* \"#utility.yul\":2212:2213   */\n      0x00\n        /* \"#utility.yul\":2205:2293   */\n      mstore\n        /* \"#utility.yul\":2312:2316   */\n      0x11\n        /* \"#utility.yul\":2309:2310   */\n      0x04\n        /* \"#utility.yul\":2302:2317   */\n      mstore\n        /* \"#utility.yul\":2336:2340   */\n      0x24\n        /* \"#utility.yul\":2333:2334   */\n      0x00\n        /* \"#utility.yul\":2326:2341   */\n      revert\n        /* \"#utility.yul\":2353:2586   */\n    tag_35:\n        /* \"#utility.yul\":2392:2395   */\n      0x00\n        /* \"#utility.yul\":2415:2439   */\n      tag_73\n        /* \"#utility.yul\":2433:2438   */\n      dup3\n        /* \"#utility.yul\":2415:2439   */\n      tag_42\n      jump\t// in\n    tag_73:\n        /* \"#utility.yul\":2406:2439   */\n      swap2\n      pop\n        /* \"#utility.yul\":2461:2527   */\n      0xffffffffffffffffffffffffffffffffffffffffffffffffffffffffffffffff\n        /* \"#utility.yul\":2454:2459   */\n      dup3\n        /* \"#utility.yul\":2451:2528   */\n      sub\n        /* \"#utility.yul\":2448:2551   */\n      tag_74\n      jumpi\n        /* \"#utility.yul\":2531:2549   */\n      tag_75\n      tag_50\n      jump\t// in\n    tag_75:\n        /* \"#utility.yul\":2448:2551   */\n    tag_74:\n        /* \"#utility.yul\":2578:2579   */\n      0x01\n        /* \"#utility.yul\":2571:2576   */\n      dup3\n        /* \"#utility.yul\":2567:2580   */\n      add\n        /* \"#utility.yul\":2560:2580   */\n      swap1\n      pop\n        /* \"#utility.yul\":2353:2586   */\n      swap2\n      swap1\n      pop\n      jump\t// out\n        /* \"#utility.yul\":2592:2924   */\n    tag_41:\n        /* \"#utility.yul\":2713:2717   */\n      0x00\n        /* \"#utility.yul\":2751:2753   */\n      0x40\n        /* \"#utility.yul\":2740:2749   */\n      dup3\n        /* \"#utility.yul\":2736:2754   */\n      add\n        /* \"#utility.yul\":2728:2754   */\n      swap1\n      pop\n        /* \"#utility.yul\":2764:2835   */\n      tag_77\n        /* \"#utility.yul\":2832:2833   */\n      0x00\n        /* \"#utility.yul\":2821:2830   */\n      dup4\n        /* \"#utility.yul\":2817:2834   */\n      add\n        /* \"#utility.yul\":2808:2814   */\n      dup6\n        /* \"#utility.yul\":2764:2835   */\n      tag_46\n      jump\t// in\n    tag_77:\n        /* \"#utility.yul\":2845:2917   */\n      tag_78\n        /* \"#utility.yul\":2913:2915   */\n      0x20\n        /* \"#utility.yul\":2902:2911   */\n      dup4\n        /* \"#utility.yul\":2898:2916   */\n      add\n        /* \"#utility.yul\":2889:2895   */\n      dup5\n        /* \"#utility.yul\":2845:2917   */\n      tag_43\n      jump\t// in\n    tag_78:\n        /* \"#utility.yul\":2592:2924   */\n      swap4\n      swap3\n      pop\n      pop\n      pop\n      jump\t// out\n\n    auxdata: 0xa2646970667358221220b9952e2decf095301bfd59ea9d29f962340f62b1996483ebcc0f8d8781a3cc0264736f6c634300081e0033\n}\n",
				"bytecode": {
					"linkReferences": {},
					"object": "60806040525f6001553480156012575f5ffd5b50335f5f6101000a81548173ffffffffffffffffffffffffffffffffffffffff021916908373ffffffffffffffffffffffffffffffffffffffff1602179055506104b58061005f5f395ff3fe608060405260043610610049575f3560e01c8063209652551461004d5780633ccfd60b146100775780638da5cb5b1461008d578063d09de08a146100b7578063d826f88f146100c1575b5f5ffd5b348015610058575f5ffd5b506100616100d7565b60405161006e91906102fb565b60405180910390f35b348015610082575f5ffd5b5061008b6100e0565b005b348015610098575f5ffd5b506100a16101d4565b6040516100ae9190610353565b60405180910390f35b6100bf6101f8565b005b3480156100cc575f5ffd5b506100d5610211565b005b5f600154905090565b5f5f9054906101000a900473ffffffffffffffffffffffffffffffffffffffff1673ffffffffffffffffffffffffffffffffffffffff163373ffffffffffffffffffffffffffffffffffffffff161461016e576040517f08c379a0000000000000000000000000000000000000000000000000000000008152600401610165906103c6565b60405180910390fd5b5f5f9054906101000a900473ffffffffffffffffffffffffffffffffffffffff1673ffffffffffffffffffffffffffffffffffffffff166108fc4790811502906040515f60405180830381858888f193505050501580156101d1573d5f5f3e3d5ffd5b50565b5f5f9054906101000a900473ffffffffffffffffffffffffffffffffffffffff1681565b60015f81548092919061020a90610411565b9190505550565b5f5f9054906101000a900473ffffffffffffffffffffffffffffffffffffffff1673ffffffffffffffffffffffffffffffffffffffff163373ffffffffffffffffffffffffffffffffffffffff161461029f576040517f08c379a0000000000000000000000000000000000000000000000000000000008152600401610296906103c6565b60405180910390fd5b7fe770d1af15a1dc2b8f3a2b7111c8489188cc2d4b81ef888a8c8a0dfeca61284f336001546040516102d2929190610458565b60405180910390a15f600181905550565b5f819050919050565b6102f5816102e3565b82525050565b5f60208201905061030e5f8301846102ec565b92915050565b5f73ffffffffffffffffffffffffffffffffffffffff82169050919050565b5f61033d82610314565b9050919050565b61034d81610333565b82525050565b5f6020820190506103665f830184610344565b92915050565b5f82825260208201905092915050565b7f4f6e6c79204f776e6572210000000000000000000000000000000000000000005f82015250565b5f6103b0600b8361036c565b91506103bb8261037c565b602082019050919050565b5f6020820190508181035f8301526103dd816103a4565b9050919050565b7f4e487b71000000000000000000000000000000000000000000000000000000005f52601160045260245ffd5b5f61041b826102e3565b91507fffffffffffffffffffffffffffffffffffffffffffffffffffffffffffffffff820361044d5761044c6103e4565b5b600182019050919050565b5f60408201905061046b5f830185610344565b61047860208301846102ec565b939250505056fea2646970667358221220b9952e2decf095301bfd59ea9d29f962340f62b1996483ebcc0f8d8781a3cc0264736f6c634300081e0033",
					"opcodes": "PUSH1 0x80 PUSH1 0x40 MSTORE PUSH0 PUSH1 0x1 SSTORE CALLVALUE DUP1 ISZERO PUSH1 0x12 JUMPI PUSH0 PUSH0 REVERT JUMPDEST POP CALLER PUSH0 PUSH0 PUSH2 0x100 EXP DUP2 SLOAD DUP2 PUSH20 0xFFFFFFFFFFFFFFFFFFFFFFFFFFFFFFFFFFFFFFFF MUL NOT AND SWAP1 DUP4 PUSH20 0xFFFFFFFFFFFFFFFFFFFFFFFFFFFFFFFFFFFFFFFF AND MUL OR SWAP1 SSTORE POP PUSH2 0x4B5 DUP1 PUSH2 0x5F PUSH0 CODECOPY PUSH0 RETURN INVALID PUSH1 0x80 PUSH1 0x40 MSTORE PUSH1 0x4 CALLDATASIZE LT PUSH2 0x49 JUMPI PUSH0 CALLDATALOAD PUSH1 0xE0 SHR DUP1 PUSH4 0x20965255 EQ PUSH2 0x4D JUMPI DUP1 PUSH4 0x3CCFD60B EQ PUSH2 0x77 JUMPI DUP1 PUSH4 0x8DA5CB5B EQ PUSH2 0x8D JUMPI DUP1 PUSH4 0xD09DE08A EQ PUSH2 0xB7 JUMPI DUP1 PUSH4 0xD826F88F EQ PUSH2 0xC1 JUMPI JUMPDEST PUSH0 PUSH0 REVERT JUMPDEST CALLVALUE DUP1 ISZERO PUSH2 0x58 JUMPI PUSH0 PUSH0 REVERT JUMPDEST POP PUSH2 0x61 PUSH2 0xD7 JUMP JUMPDEST PUSH1 0x40 MLOAD PUSH2 0x6E SWAP2 SWAP1 PUSH2 0x2FB JUMP JUMPDEST PUSH1 0x40 MLOAD DUP1 SWAP2 SUB SWAP1 RETURN JUMPDEST CALLVALUE DUP1 ISZERO PUSH2 0x82 JUMPI PUSH0 PUSH0 REVERT JUMPDEST POP PUSH2 0x8B PUSH2 0xE0 JUMP JUMPDEST STOP JUMPDEST CALLVALUE DUP1 ISZERO PUSH2 0x98 JUMPI PUSH0 PUSH0 REVERT JUMPDEST POP PUSH2 0xA1 PUSH2 0x1D4 JUMP JUMPDEST PUSH1 0x40 MLOAD PUSH2 0xAE SWAP2 SWAP1 PUSH2 0x353 JUMP JUMPDEST PUSH1 0x40 MLOAD DUP1 SWAP2 SUB SWAP1 RETURN JUMPDEST PUSH2 0xBF PUSH2 0x1F8 JUMP JUMPDEST STOP JUMPDEST CALLVALUE DUP1 ISZERO PUSH2 0xCC JUMPI PUSH0 PUSH0 REVERT JUMPDEST POP PUSH2 0xD5 PUSH2 0x211 JUMP JUMPDEST STOP JUMPDEST PUSH0 PUSH1 0x1 SLOAD SWAP1 POP SWAP1 JUMP JUMPDEST PUSH0 PUSH0 SWAP1 SLOAD SWAP1 PUSH2 0x100 EXP SWAP1 DIV PUSH20 0xFFFFFFFFFFFFFFFFFFFFFFFFFFFFFFFFFFFFFFFF AND PUSH20 0xFFFFFFFFFFFFFFFFFFFFFFFFFFFFFFFFFFFFFFFF AND CALLER PUSH20 0xFFFFFFFFFFFFFFFFFFFFFFFFFFFFFFFFFFFFFFFF AND EQ PUSH2 0x16E JUMPI PUSH1 0x40 MLOAD PUSH32 0x8C379A000000000000000000000000000000000000000000000000000000000 DUP2 MSTORE PUSH1 0x4 ADD PUSH2 0x165 SWAP1 PUSH2 0x3C6 JUMP JUMPDEST PUSH1 0x40 MLOAD DUP1 SWAP2 SUB SWAP1 REVERT JUMPDEST PUSH0 PUSH0 SWAP1 SLOAD SWAP1 PUSH2 0x100 EXP SWAP1 DIV PUSH20 0xFFFFFFFFFFFFFFFFFFFFFFFFFFFFFFFFFFFFFFFF AND PUSH20 0xFFFFFFFFFFFFFFFFFFFFFFFFFFFFFFFFFFFFFFFF AND PUSH2 0x8FC SELFBALANCE SWAP1 DUP2 ISZERO MUL SWAP1 PUSH1 0x40 MLOAD PUSH0 PUSH1 0x40 MLOAD DUP1 DUP4 SUB DUP2 DUP6 DUP9 DUP9 CALL SWAP4 POP POP POP POP ISZERO DUP1 ISZERO PUSH2 0x1D1 JUMPI RETURNDATASIZE PUSH0 PUSH0 RETURNDATACOPY RETURNDATASIZE PUSH0 REVERT JUMPDEST POP JUMP JUMPDEST PUSH0 PUSH0 SWAP1 SLOAD SWAP1 PUSH2 0x100 EXP SWAP1 DIV PUSH20 0xFFFFFFFFFFFFFFFFFFFFFFFFFFFFFFFFFFFFFFFF AND DUP2 JUMP JUMPDEST PUSH1 0x1 PUSH0 DUP2 SLOAD DUP1 SWAP3 SWAP2 SWAP1 PUSH2 0x20A SWAP1 PUSH2 0x411 JUMP JUMPDEST SWAP2 SWAP1 POP SSTORE POP JUMP JUMPDEST PUSH0 PUSH0 SWAP1 SLOAD SWAP1 PUSH2 0x100 EXP SWAP1 DIV PUSH20 0xFFFFFFFFFFFFFFFFFFFFFFFFFFFFFFFFFFFFFFFF AND PUSH20 0xFFFFFFFFFFFFFFFFFFFFFFFFFFFFFFFFFFFFFFFF AND CALLER PUSH20 0xFFFFFFFFFFFFFFFFFFFFFFFFFFFFFFFFFFFFFFFF AND EQ PUSH2 0x29F JUMPI PUSH1 0x40 MLOAD PUSH32 0x8C379A000000000000000000000000000000000000000000000000000000000 DUP2 MSTORE PUSH1 0x4 ADD PUSH2 0x296 SWAP1 PUSH2 0x3C6 JUMP JUMPDEST PUSH1 0x40 MLOAD DUP1 SWAP2 SUB SWAP1 REVERT JUMPDEST PUSH32 0xE770D1AF15A1DC2B8F3A2B7111C8489188CC2D4B81EF888A8C8A0DFECA61284F CALLER PUSH1 0x1 SLOAD PUSH1 0x40 MLOAD PUSH2 0x2D2 SWAP3 SWAP2 SWAP1 PUSH2 0x458 JUMP JUMPDEST PUSH1 0x40 MLOAD DUP1 SWAP2 SUB SWAP1 LOG1 PUSH0 PUSH1 0x1 DUP2 SWAP1 SSTORE POP JUMP JUMPDEST PUSH0 DUP2 SWAP1 POP SWAP2 SWAP1 POP JUMP JUMPDEST PUSH2 0x2F5 DUP2 PUSH2 0x2E3 JUMP JUMPDEST DUP3 MSTORE POP POP JUMP JUMPDEST PUSH0 PUSH1 0x20 DUP3 ADD SWAP1 POP PUSH2 0x30E PUSH0 DUP4 ADD DUP5 PUSH2 0x2EC JUMP JUMPDEST SWAP3 SWAP2 POP POP JUMP JUMPDEST PUSH0 PUSH20 0xFFFFFFFFFFFFFFFFFFFFFFFFFFFFFFFFFFFFFFFF DUP3 AND SWAP1 POP SWAP2 SWAP1 POP JUMP JUMPDEST PUSH0 PUSH2 0x33D DUP3 PUSH2 0x314 JUMP JUMPDEST SWAP1 POP SWAP2 SWAP1 POP JUMP JUMPDEST PUSH2 0x34D DUP2 PUSH2 0x333 JUMP JUMPDEST DUP3 MSTORE POP POP JUMP JUMPDEST PUSH0 PUSH1 0x20 DUP3 ADD SWAP1 POP PUSH2 0x366 PUSH0 DUP4 ADD DUP5 PUSH2 0x344 JUMP JUMPDEST SWAP3 SWAP2 POP POP JUMP JUMPDEST PUSH0 DUP3 DUP3 MSTORE PUSH1 0x20 DUP3 ADD SWAP1 POP SWAP3 SWAP2 POP POP JUMP JUMPDEST PUSH32 0x4F6E6C79204F776E657221000000000000000000000000000000000000000000 PUSH0 DUP3 ADD MSTORE POP JUMP JUMPDEST PUSH0 PUSH2 0x3B0 PUSH1 0xB DUP4 PUSH2 0x36C JUMP JUMPDEST SWAP2 POP PUSH2 0x3BB DUP3 PUSH2 0x37C JUMP JUMPDEST PUSH1 0x20 DUP3 ADD SWAP1 POP SWAP2 SWAP1 POP JUMP JUMPDEST PUSH0 PUSH1 0x20 DUP3 ADD SWAP1 POP DUP2 DUP2 SUB PUSH0 DUP4 ADD MSTORE PUSH2 0x3DD DUP2 PUSH2 0x3A4 JUMP JUMPDEST SWAP1 POP SWAP2 SWAP1 POP JUMP JUMPDEST PUSH32 0x4E487B7100000000000000000000000000000000000000000000000000000000 PUSH0 MSTORE PUSH1 0x11 PUSH1 0x4 MSTORE PUSH1 0x24 PUSH0 REVERT JUMPDEST PUSH0 PUSH2 0x41B DUP3 PUSH2 0x2E3 JUMP JUMPDEST SWAP2 POP PUSH32 0xFFFFFFFFFFFFFFFFFFFFFFFFFFFFFFFFFFFFFFFFFFFFFFFFFFFFFFFFFFFFFFFF DUP3 SUB PUSH2 0x44D JUMPI PUSH2 0x44C PUSH2 0x3E4 JUMP JUMPDEST JUMPDEST PUSH1 0x1 DUP3 ADD SWAP1 POP SWAP2 SWAP1 POP JUMP JUMPDEST PUSH0 PUSH1 0x40 DUP3 ADD SWAP1 POP PUSH2 0x46B PUSH0 DUP4 ADD DUP6 PUSH2 0x344 JUMP JUMPDEST PUSH2 0x478 PUSH1 0x20 DUP4 ADD DUP5 PUSH2 0x2EC JUMP JUMPDEST SWAP4 SWAP3 POP POP POP JUMP INVALID LOG2 PUSH5 0x6970667358 0x22 SLT KECCAK256 0xB9 SWAP6 0x2E 0x2D EOFCREATE 0xF0 SWAP6 ADDRESS SHL REVERT MSIZE 0xEA SWAP14 0x29 EXTDELEGATECALL PUSH3 0x340F62 0xB1 SWAP10 PUSH5 0x83EBCC0F8D DUP8 DUP2 LOG3 0xCC MUL PUSH5 0x736F6C6343 STOP ADDMOD 0x1E STOP CALLER "
				},
				"gasEstimates": {
					"creation": {
						"codeDepositCost": "241000",
						"executionCost": "29548",
						"totalCost": "270548"
					},
					"external": {
						"getValue()": "2410",
						"increment()": "24517",
						"owner()": "2529",
						"reset()": "11083",
						"withdraw()": "infinite"
					}
				},
				"methodIdentifiers": {
					"getValue()": "20965255",
					"increment()": "d09de08a",
					"owner()": "8da5cb5b",
					"reset()": "d826f88f",
					"withdraw()": "3ccfd60b"
				}
			},
			"storageLayout": {
				"storage": [
					{
						"astId": 3,
						"contract": "Counter.sol:Counter",
						"label": "owner",
						"offset": 0,
						"slot": "0",
						"type": "t_address"
					},
					{
						"astId": 30,
						"contract": "Counter.sol:Counter",
						"label": "value",
						"offset": 0,
						"slot": "1",
						"type": "t_uint256"
					}
				],
				"types": {
					"t_address": {
						"encoding": "inplace",
						"label": "address",
						"numberOfBytes": "20"
					},
					"t_uint256": {
						"encoding": "inplace",
						"label": "uint256",
						"numberOfBytes": "32"
					}
				}
			},
			"userdoc": {
				"kind": "user",
				"methods": {},
				"version": 1
			}
		}
	}
}